:100000000C942A000C942E120C945B120C948812FF
:100010000C94990D0C94F60D0C94600E0C94470002
:100020000C9447000C948D0E0C94D20C0C942F0D54
:100030000C94DB0F0C9467090C9497090C94B2098B
:100040000C94B7160C9447000C9447000C9447008E
:100050000C94470011241FBECFE5D8E0DEBFCDBF12
:1000600011E0A0E6B0E0EEE1F0E702C005900D92ED
:10007000AE3DB107D9F712E0AEEDB1E001C01D927F
:10008000AC34B107E1F70E942C330C940D380C947A
:100090000000EF92FF920F931F937B018C0120E0F1
:1000A00030E040E05FE40E94F50388238CF0C80153
:1000B000B70120E030E040E05FE40E94C1010E940F
:1000C000B3049B01AC01205030404040504806C072
:1000D000C801B7010E94B3049B01AC01B901CA0178
:1000E0001F910F91FF90EF900895A0E0B0E0EBE733
:1000F000F0E00C94C334DC012B01FA019C919230A6
:1001000008F439C1EB018881823008F433C194309E
:1001100069F4843009F02FC111969C91119789815F
:10012000981709F428C1AAE8B0E025C1843009F481
:1001300021C18230A9F4923009F01DC19A01AD01AC
:1001400088E0EA010990AE01E90109929E0181501F
:10015000C1F7E201898111969C918923818308C1AD
:10016000923009F407C112962D903C901397EB0141
:100170008A819B811496AD90BD90CD90DC901797AD
:10018000EC80FD800E811F819101281B390BB90184
:1001900037FF04C066277727621B730B6032710537
:1001A0000CF061C0121613066CF537014801062EDB
:1001B00004C096948794779467940A94D2F721E0C8
:1001C00030E040E050E004C0220F331F441F551FB1
:1001D0006A95D2F721503040404050402E213F21B7
:1001E00040235123211531054105510521F021E01E
:1001F00030E040E050E079018A01E628F72808293C
:1002000019293CC0232BD1F1260E371E350146019A
:10021000062E04C096948794779467940A94D2F734
:1002200021E030E040E050E004C0220F331F441FC3
:10023000551F6A95D2F721503040404050402A2146
:100240003B214C215D21211531054105510521F04E
:1002500021E030E040E050E059016A01A628B728CB
:10026000C828D9280BC0821593052CF01C01AA249C
:10027000BB24650103C0EE24FF24870111969C91E5
:10028000D20111968C91981709F445C0992339F041
:10029000A80197012A193B094C095D0906C0A6016E
:1002A00095012E193F09400B510B57FD08C01182D3
:1002B0003382228224833583468357831DC081E0A5
:1002C00081833382228288279927DC01821B930B4A
:1002D000A40BB50B84839583A683B7830DC0220F2F
:1002E000331F441F551F24833583468357838281E0
:1002F000938101979383828324813581468157813D
:10030000DA01C9010197A109B1098F5F9F4FAF4F72
:10031000BF4328F30BC0918333822282EA0CFB1C7B
:100320000C1D1D1DE482F5820683178383E0808304
:10033000248135814681578157FF1AC0C901AA27F8
:1003400097FDA095BA2F81709070A070B0705695EF
:10035000479537952795822B932BA42BB52B848318
:100360009583A683B7838281938101969383828349
:10037000DF0101C0D201CD01CDB7DEB7E2E10C94BF
:10038000DF34A0E2B0E0E7ECF1E00C94CF34698315
:100390007A838B839C832D833E834F835887E9E048
:1003A000EE2EF12CEC0EFD1ECE010196B7010E943F
:1003B000A4068E010F5E1F4FCE010596B8010E9464
:1003C000A4068A8991E089278A8BC701B801AE010A
:1003D000475E5F4F0E9475000E94CF05A096E6E041
:1003E0000C94EB34A0E2B0E0E8EFF1E00C94CF34F1
:1003F00069837A838B839C832D833E834F835887C5
:10040000F9E0EF2EF12CEC0EFD1ECE010196B701A6
:100410000E94A4068E010F5E1F4FCE010596B80103
:100420000E94A406C701B801AE01475E5F4F0E945B
:1004300075000E94CF05A096E6E00C94EB34A0E294
:10044000B0E0E5E2F2E00C94C33469837A838B83F5
:100450009C832D833E834F835887CE010196BE0136
:10046000675F7F4F0E94A406CE010596BE016F5EB6
:100470007F4F0E94A4069985923088F08989823046
:10048000C8F0943019F4823051F404C0843029F457
:10049000923081F48AE890E0C6C0923049F420E0BE
:1004A0009A858A89981321E02A87CE010996BBC0D4
:1004B000823049F420E09A858A89981321E02A8BBA
:1004C000CE014196B0C02D843E844F8458886D88FB
:1004D0007E888F88988CEE24FF248701AA24BB2471
:1004E000650140E050E060E070E0E0E0F0E0C10174
:1004F00081709070892BE9F0E60CF71C081D191D1E
:100500009A01AB012A0D3B1D4C1D5D1D80E090E062
:10051000A0E0B0E0E614F7040805190520F481E036
:1005200090E0A0E0B0E0BA01A901480F591F6A1F8E
:100530007B1FAA0CBB1CCC1CDD1C97FE08C081E0F5
:1005400090E0A0E0B0E0A82AB92ACA2ADB2A3196B6
:10055000E032F10549F0660C771C881C991C569412
:10056000479437942794C3CFFA85EA892B893C892D
:100570008B859C85280F391F2E5F3F4F17C0CA01FE
:1005800081709070892B61F016950795F794E79428
:1005900080E090E0A0E0B0E8E82AF92A0A2B1B2BC3
:1005A00076956795579547952F5F3F4F77FDE7CF36
:1005B0000CC0440F551F661F771F17FD4160EE0CDE
:1005C000FF1C001F111F21503040403090E05907A0
:1005D00090E0690790E4790760F32B8F3C8FDB0193
:1005E000CA018F779070A070B07080349105A1051A
:1005F000B10561F447FD0AC0E114F10401051105DC
:1006000029F0405C5F4F6F4F7F4F40781A8EFE1786
:1006100011F081E08A8F4D8F5E8F6F8F78A383E01A
:10062000898FCE0149960E94CF05A096E2E10C94F5
:10063000DF34A8E1B0E0EFE1F3E00C94CB34698360
:100640007A838B839C832D833E834F835887B9E0C5
:10065000EB2EF12CEC0EFD1ECE010196B7010E948F
:10066000A4068E010F5E1F4FCE010596B8010E94B1
:10067000A4062985223008F47EC03989323010F46E
:10068000B8017CC08A859A8989278A87243011F02D
:10069000223031F4231709F06EC06AE870E06EC0B2
:1006A000343039F41D861E861F86188A1C861B86E8
:1006B00004C0323021F484E08987B7015FC02B8504
:1006C0003C858B899C89281B390B3C872B87ED84C3
:1006D000FE840F851889AD88BE88CF88D88CEA142F
:1006E000FB040C051D0540F4EE0CFF1C001F111F40
:1006F000215030403C872B8720E030E040E050E044
:1007000080E090E0A0E0B0E460E070E0EA14FB0478
:100710000C051D0540F0282B392B4A2B5B2BEA18C2
:10072000FB080C091D09B695A79597958795EE0CC2
:10073000FF1C001F111F6F5F7F4F6F31710531F775
:10074000DA01C9018F779070A070B0708034910584
:10075000A105B10561F427FD0AC0E114F10401050A
:10076000110529F0205C3F4F4F4F5F4F20782D87B8
:100770003E874F87588BBE01675F7F4FCB010E943A
:10078000CF056896EAE00C94E734A8E1B0E0EBEC22
:10079000F3E00C94CF3469837A838B839C832D831D
:1007A0003E834F83588789E0E82EF12CEC0EFD1E26
:1007B000CE010196B7010E94A4068E010F5E1F4F65
:1007C000CE010596B8010E94A4068985823040F0CA
:1007D0008989823028F0C701B8010E941C0701C036
:1007E0008FEF6896E6E00C94EB34A8E1B0E0EBEF15
:1007F000F3E00C94CF3469837A838B839C832D83BD
:100800003E834F83588789E0E82EF12CEC0EFD1EC5
:10081000CE010196B7010E94A4068E010F5E1F4F04
:10082000CE010596B8010E94A4068985823040F069
:100830008989823028F0C701B8010E941C0701C0D5
:100840008FEF6896E6E00C94EB34A8E1B0E0EBE2C1
:10085000F4E00C94CF3469837A838B839C832D835B
:100860003E834F83588789E0E82EF12CEC0EFD1E65
:10087000CE010196B7010E94A4068E010F5E1F4FA4
:10088000CE010596B8010E94A4068985823040F009
:100890008989823028F0C701B8010E941C0701C075
:1008A00081E06896E6E00C94EB34A8E0B0E0EBE57C
:1008B000F4E00C94CC349B01AC0183E08983DA0131
:1008C000C9018827B7FD83959927AA27BB27B82E8A
:1008D000211531054105510519F482E089833AC09B
:1008E0008823A9F0203080E0380780E0480780E8BE
:1008F000580729F460E070E080E09FEC30C0EE24FF
:10090000FF248701E21AF30A040B150B02C07901D8
:100910008A018EE1C82ED12CDC82CB82ED82FE8250
:100920000F831887C801B7010E9480050197181628
:10093000190684F4082E04C0EE0CFF1C001F111FC2
:100940000A94D2F7ED82FE820F831887C81AD90A5B
:10095000DC82CB82BA82CE0101960E94CF05289616
:10096000E9E00C94E834ACE0B0E0E9EBF4E00C949E
:10097000D33469837A838B839C83CE010196BE0135
:100980006B5F7F4F0E94A4068D81823061F18230BF
:1009900050F1843021F48E81882351F12EC02F81B3
:1009A000388537FD20C06E812F3131051CF066235C
:1009B000F9F023C08EE190E0821B930B29853A85E4
:1009C0004B855C8504C056954795379527958A9544
:1009D000D2F76623B1F050954095309521953F4F61
:1009E0004F4F5F4F0EC020E030E040E050E009C0C4
:1009F0002FEF3FEF4FEF5FE704C020E030E040E033
:100A000050E8B901CA012C96E2E00C94EF34A8E05A
:100A1000B0E0EDE0F5E00C94CB347B018C01611586
:100A200071058105910519F482E0898360C083E036
:100A300089838EE1C82ED12CDC82CB82ED82FE82AE
:100A40000F831887C801B7010E948005FC01319708
:100A5000F7FF3BC0222733272E1B3F0B57016801AE
:100A6000022E04C0D694C794B794A7940A94D2F7E0
:100A700040E050E060E070E081E090E0A0E0B0E0B5
:100A800004C0880F991FAA1FBB1F2A95D2F7019790
:100A9000A109B1098E219F21A023B1230097A105AF
:100AA000B10521F041E050E060E070E04A295B29A7
:100AB0006C297D294D835E836F8378878EE190E07A
:100AC0008E1B9F0B9C838B8312C0309781F00E2E60
:100AD00004C0EE0CFF1C001F111F0A94D2F7ED8218
:100AE000FE820F831887CE1ADF0ADC82CB821A823D
:100AF000CE0101960E94CF052896EAE00C94E734D7
:100B0000EF92FF920F931F937B018C0180E0E81618
:100B100080E0F80681E0080780E0180788F48FEF8E
:100B2000E816F1040105110531F028F088E090E0A5
:100B3000A0E0B0E017C080E090E0A0E0B0E012C01C
:100B400080E0E81680E0F80680E0080781E01807FA
:100B500028F088E190E0A0E0B0E004C080E190E0FF
:100B6000A0E0B0E020E230E040E050E0281B390B8C
:100B70004A0B5B0B04C016950795F794E7948A958A
:100B8000D2F7F701EE56FF4F8081281B310941094A
:100B90005109C9011F910F91FF90EF900895DF92C5
:100BA000EF92FF920F931F93FC01E480F580068182
:100BB0001781D1808081823048F480E090E0A0E10C
:100BC000B0E0E82AF92A0A2B1B2BA5C0843009F4CF
:100BD0009FC0823021F4EE24FF24870105C0E11478
:100BE000F1040105110519F4E0E0F0E096C062811E
:100BF00073819FEF623879070CF05BC022E83FEF0A
:100C0000261B370B2A3131052CF020E030E040E084
:100C100050E02AC0B801A701022E04C0769567955E
:100C2000579547950A94D2F781E090E0A0E0B0E0B4
:100C300004C0880F991FAA1FBB1F2A95D2F70197DE
:100C4000A109B1098E219F21A023B1230097A105FD
:100C5000B10521F081E090E0A0E0B0E09A01AB01A5
:100C6000282B392B4A2B5B2BDA01C9018F77907027
:100C7000A070B07080349105A105B10539F427FF4B
:100C800009C0205C3F4F4F4F5F4F04C0215C3F4F76
:100C90004F4F5F4FE0E0F0E02030A0E03A07A0E0E7
:100CA0004A07A0E45A0710F0E1E0F0E079018A0178
:100CB00027C06038710564F5FB01E158FF4FD8018A
:100CC000C7018F779070A070B07080349105A10536
:100CD000B10539F4E7FE0DC080E490E0A0E0B0E09B
:100CE00004C08FE390E0A0E0B0E0E80EF91E0A1F18
:100CF0001B1F17FF05C016950795F794E7943196CB
:100D000087E016950795F794E7948A95D1F705C083
:100D1000EE24FF248701EFEFF0E06E2F6795662742
:100D20006795902F9F77D794DD24D7948E2F869543
:100D3000492F462B582F5D29B701CA011F910F91EA
:100D4000FF90EF90DF900895FC01DB01408151811D
:100D50002281622F6F7770E0221F2227221F93814A
:100D6000892F880F822B282F30E0991F9927991FF0
:100D700011969C93119721153105A9F5411551053F
:100D80006105710511F482E037C082E89FEF139688
:100D90009C938E9312979A01AB0167E0220F331F49
:100DA000441F551F6A95D1F783E08C930DC0220F25
:100DB000331F441F551F12968D919C9113970197D5
:100DC00013969C938E931297203080E0380780E032
:100DD000480780E4580758F314962D933D934D939C
:100DE0005C93179708952F3F310579F4411551050C
:100DF0006105710519F484E08C93089564FF03C0C4
:100E000081E08C9312C01C9210C02F573040139673
:100E10003C932E93129783E08C9387E0440F551FE9
:100E2000661F771F8A95D1F7706414964D935D9372
:100E30006D937C93179708951F93DC01FB019C91A0
:100E4000923008F447C08081823008F443C0943067
:100E500051F411961C91843099F58181682F70E0CE
:100E6000611B71093FC0843021F0923031F482302F
:100E7000B9F18181882389F12DC011961C911197B8
:100E80008230F1F081811817D9F412962D913C919E
:100E90001397828193818217930794F0281739075B
:100EA000BCF014968D919D910D90BC91A02D248144
:100EB000358146815781281739074A075B0718F49F
:100EC000112341F00AC082179307A407B50740F425
:100ED000112319F061E070E005C06FEF7FEF02C0F1
:100EE00060E070E0CB011F910895DF93CF93CDB701
:100EF000DEB780E00E94C209CF91DF910895DF93B1
:100F0000CF93CDB7DEB720EC37E080E040E050E093
:100F10006AE774E40E94D70ACF91DF910895DF93C6
:100F2000CF9300D000D00F92CDB7DEB789837B83FB
:100F30006A835D834C838981882F90E0880F991F95
:100F4000880F991FFC01E45DFD4F8A819B8191838D
:100F500080838981882F90E0880F991F0196880FE0
:100F6000991FFC01E45DFD4F8C819D8191838083FD
:100F70000F900F900F900F900F90CF91DF910895E9
:100F8000EF92FF920F931F93DF93CF930F92CDB702
:100F9000DEB78091DE019091DF01A091E001B09178
:100FA000E1010196A11DB11D8093DE019093DF0147
:100FB000A093E001B093E101198233C0E090DE011B
:100FC000F090DF010091E0011091E1018981882F0B
:100FD00090E0880F991F880F991FFC01E45DFD4F79
:100FE000808191819C0140E050E0C801B7010E94DE
:100FF000A134DC01CB010097A105B10579F4898109
:10100000882F90E0880F991F0196880F991FFC0187
:10101000E45DFD4F0190F081E02D099589818F5F9E
:1010200089838981833050F20F90CF91DF911F9196
:101030000F91FF90EF900895DF93CF93CDB7DEB778
:10104000A1E4B0E0E1E4F0E0808188608C93CF918E
:10105000DF910895DF93CF93CDB7DEB7E1E4F0E001
:1010600088E18083E1E4F0E01082CF91DF91089580
:10107000DF93CF930F92CDB7DEB78983A1E4B0E0C1
:10108000E1E4F0E08081887F8C93A1E4B0E0E1E4CA
:10109000F0E090818981892B8C930F90CF91DF9123
:1010A0000895DF93CF93CDB7DEB7E9E2F0E083E3B5
:1010B0008083E0E4F0E01082A0E4B0E0E0E4F0E05F
:1010C00080818F7480688C93A0E4B0E0E0E4F0E06D
:1010D0008081877780688C93A0E4B0E0E0E4F0E062
:1010E000808186688C93AAE2B0E0EAE2F0E0808139
:1010F0008B7F8C9383E060E040E00E94B51283E038
:1011000061E041E00E94B512AAE2B0E0EAE2F0E05C
:10111000808180618C93AAE2B0E0EAE2F0E0808115
:1011200088608C93CF91DF910895DF93CF930F92D6
:10113000CDB7DEB78983EBE2F0E08081882F90E0C5
:10114000807290700097B9F3ECE2F0E089818083BF
:101150000F90CF91DF910895DF93CF930F92CDB78A
:10116000DEB789830E947A11AAE2B0E0EAE2F0E0F9
:10117000808180628C9389818093E2010F90CF916E
:10118000DF910895DF93CF9300D000D000D0CDB78A
:10119000DEB79E838D8319821A821B821C8215C042
:1011A00029813A818D819E81FC01E20FF31F8081AC
:1011B0000E94950889819A81AB81BC810196A11D0D
:1011C000B11D89839A83AB83BC8329813A818D8148
:1011D0009E81FC01E20FF31F8081882309F7269688
:1011E0000FB6F894DEBF0FBECDBFCF91DF9108954B
:1011F000DF93CF93CDB7DEB7EBE2F0E080818823B9
:10120000DCF7ECE2F0E08081CF91DF9108950F935D
:101210001F93DF93CF9300D00F92CDB7DEB79B83A0
:101220008A8319828981282F30E08A819B818C01F1
:10123000020F131F0E94F808F80180830FC08981F4
:101240008F5F89838981282F30E08A819B818C017F
:10125000020F131F0E94F808F80180838981282F4C
:1012600030E08A819B81FC01E20FF31F8081882F8F
:1012700090E0009721F78981282F30E08A819B81B7
:10128000FC01E20FF31F10820F900F900F90CF918F
:10129000DF911F910F910895DF93CF9300D0CDB7C9
:1012A000DEB79A8389830E947A11AAE2B0E0EAE26B
:1012B000F0E0808180688C9389819A8190933902D3
:1012C000809338020F900F90CF91DF9108951F9275
:1012D0000F920FB60F9211242F933F934F935F936A
:1012E0006F937F938F939F93AF93BF93EF93FF93EE
:1012F000DF93CF93CDB7DEB7E0913802F09139029A
:10130000ACE2B0E08C910995CF91DF91FF91EF9124
:10131000BF91AF919F918F917F916F915F914F910D
:101320003F912F910F900FBE0F901F9018951F9215
:101330000F920FB60F9211248F93EF93FF93DF93C9
:10134000CF93CDB7DEB7ECE2F0E08091E20180838D
:10135000CF91DF91FF91EF918F910F900FBE0F9082
:101360001F9018951F920F920FB60F921124DF93C2
:10137000CF93CDB7DEB7CF91DF910F900FBE0F9017
:101380001F901895DF93CF9300D00F92CDB7DEB7A3
:1013900089838981282F30E03B832A838A819B813E
:1013A00081309105D1F12A813B8122303105E9F06C
:1013B0008A819B81009709F054C0A3E5B0E0E3E582
:1013C000F0E08081877B88608C93A3E5B0E0E3E563
:1013D000F0E080818F7C8C93A3E5B0E0E3E5F0E062
:1013E0008081887F82608C933CC0A5E4B0E0E5E416
:1013F000F0E0808188648C93A5E4B0E0E5E4F0E05F
:1014000080818F7C80628C93A5E4B0E0E5E4F0E01D
:101410008081887F82608C9324C0AFE4B0E0EFE4E9
:10142000F0E080818F738C93AFE4B0E0EFE4F0E004
:1014300080818F7C8C93AEE4B0E0EEE4F0E08081BC
:10144000887F82608C93AFE4B0E0EFE4F0E08081CD
:101450008C7F8C93AEE4B0E0EEE4F0E08081877E98
:101460008C930F900F900F90CF91DF910895DF93A1
:10147000CF9300D000D00F92CDB7DEB789837B83A6
:101480006A838981282F30E03D832C838C819D8164
:101490008130910599F02C813D812230310549F050
:1014A0008C819D81009781F4E2E5F0E08A81808360
:1014B0000BC0E4E4F0E08A81808306C0ECE4F0E055
:1014C0008A819B81918380830F900F900F900F9062
:1014D0000F90CF91DF910895DF93CF9300D000D08C
:1014E0000F92CDB7DEB789837B836A838981282FEA
:1014F00030E03D832C838C819D818130910599F072
:101500002C813D812230310549F08C819D810097ED
:1015100081F4ECE5F0E08A8180830BC0E3E4F0E045
:101520008A81808306C0EAE4F0E08A819B8191830E
:1015300080830F900F900F900F900F90CF91DF91BD
:101540000895DF93CF9300D0CDB7DEB79A83898318
:10155000EAE4F0E089819A81918380830F900F9073
:10156000CF91DF910895DF93CF9300D0CDB7DEB751
:101570009A838983E8E4F0E089819A81918380836A
:101580000F900F90CF91DF910895DF93CF9300D00C
:10159000CDB7DEB79A838983E6E4F0E089819A814A
:1015A000918380830F900F90CF91DF910895EF92F8
:1015B000FF920F931F93DF93CF93CDB7DEB7A99719
:1015C0000FB6F894DEBF0FBECDBF89A34AA35BA3BD
:1015D0006CA37DA33FA32EA30E947A116AA17BA1D5
:1015E0008CA19DA120E030E04AE754E40E94190359
:1015F000DC01CB01898F9A8FAB8FBC8F89A1282FFB
:1016000030E039A728A788A599A58130910509F46C
:10161000A0C028A539A52230310509F4A6C088A5A7
:1016200099A5009709F0A1C019821A821B821C8219
:1016300069817A818B819C810E9407059B01AC01A5
:10164000698D7A8D8B8D9C8D0E941903DC01CB01F5
:10165000BC01CD010E944900DC01CB018D879E8732
:10166000AF87B88B8D859E85AF85B889813021E0A5
:10167000920720E0A20720E0B20798F42D853E856E
:1016800080E0B9010E946C0A81E090E0A0E0B0E047
:101690008093F7019093F801A093F901B093FA01B8
:1016A0004AC08AEF90E0A0E0B0E08D839E83AF83D4
:1016B000B887698D7A8D8B8D9C8D20E034E244EF64
:1016C0005AE40E941F02DC01CB01BC01CD0120E0E5
:1016D00030E040E051E40E941903DC01CB017C01C1
:1016E0008D016D817E818F8198850E9407059B0108
:1016F000AC01C801B7010E941903DC01CB01BC0198
:10170000CD010E944900DC01CB018D879E87AF8708
:10171000B88B2D813E8180E0B9010E946C0A8D85D5
:101720009E85AF85B8898093F7019093F801A093C7
:10173000F901B093FA018EA19FA190934102809389
:101740004002A9E5B0E0E9E5F0E0808182608C9399
:101750000CC08EA19FA190934502809344028EA15C
:101760009FA190933D0280933C02A9960FB6F894F6
:10177000DEBF0FBECDBFCF91DF911F910F91FF90C4
:10178000EF900895DF93CF93CDB7DEB729970FB6CB
:10179000F894DEBF0FBECDBF8B834C835D836E8319
:1017A0007F838B81282F30E039872887888599852A
:1017B000009731F0288539852230310539F02FC066
:1017C00081E063E041E00E94B51229C083E067E058
:1017D00041E00E94B5126C817D818E819F8120E065
:1017E00030E048EC52E40E941903DC01CB01BC015B
:1017F000CD0120E030E040E853E40E941F02DC010C
:10180000CB01BC01CD010E944900DC01CB019A83D0
:10181000898329813A8182E0B9010E946C0A299664
:101820000FB6F894DEBF0FBECDBFCF91DF91089504
:10183000DF93CF93CDB7DEB7E6E4F0E0808191810E
:10184000CF91DF910895DF93CF9300D0CDB7DEB76E
:101850009A83898389819A81909345028093440277
:101860000F900F90CF91DF910895DF93CF9300D029
:10187000CDB7DEB79A83898389819A819093470295
:10188000809346020F900F90CF91DF910895DF93E0
:10189000CF93CDB7DEB7AFE4B0E0EFE4F0E0808106
:1018A0008E7F8C93AFE4B0E0EFE4F0E080818D7F39
:1018B0008C93AEE4B0E0EEE4F0E08081877F8C931F
:1018C000AEE4B0E0EEE4F0E080818F7E8C93AEE495
:1018D000B0E0EEE4F0E0808180648C93A9E5B0E0B4
:1018E000E9E5F0E0808180628C93A9E5B0E0E9E56C
:1018F000F0E0808184608C9383E066E040E00E94A9
:10190000B512AEE4B0E0EEE4F0E080818E7F8C931F
:10191000AEE4B0E0EEE4F0E0808182608C93AEE46F
:10192000B0E0EEE4F0E080818B7F8C93CF91DF918B
:101930000895DF93CF93CDB7DEB7A9E5B0E0E9E531
:10194000F0E080818F7D8C93CF91DF910895DF93BC
:10195000CF9300D00F92CDB7DEB789838981282F2E
:1019600030E03B832A838A819B81009731F02A8172
:101970003B812130310549F00FC0AEE4B0E0EEE428
:10198000F0E0808180648C9307C0AEE4B0E0EEE4C8
:10199000F0E080818F7B8C930F900F900F90CF9110
:1019A000DF9108951F920F920FB60F9211242F937B
:1019B0003F934F935F936F937F938F939F93AF93D7
:1019C000BF93EF93FF93DF93CF93CDB7DEB78091B3
:1019D000E7019091E801A091E901B091EA01019637
:1019E000A11DB11D8093E7019093E801A093E90147
:1019F000B093EA012091E7013091E8014091E901BB
:101A00005091EA018091F7019091F801A091F901BC
:101A1000B091FA01281739074A075B0769F4109259
:101A2000E7011092E8011092E9011092EA01E091B9
:101A30004002F09141020995CF91DF91FF91EF9122
:101A4000BF91AF919F918F917F916F915F914F91D6
:101A50003F912F910F900FBE0F901F9018951F92DE
:101A60000F920FB60F9211242F933F934F935F93D2
:101A70006F937F938F939F93AF93BF93EF93FF9356
:101A8000DF93CF93CDB7DEB78091EB019091EC015E
:101A9000A091ED01B091EE010196A11DB11D8093C1
:101AA000EB019093EC01A093ED01B093EE01209136
:101AB000EB013091EC014091ED015091EE018091EC
:101AC000F7019091F801A091F901B091FA0128175E
:101AD00039074A075B07D1F41092EB011092EC0131
:101AE0001092ED011092EE01809103029091040298
:101AF000A0910502B09106029C0180E0B9010E940C
:101B0000370AE0913A02F0913B020995CF91DF91BB
:101B1000FF91EF91BF91AF919F918F917F916F91C5
:101B20005F914F913F912F910F900FBE0F901F909B
:101B300018951F920F920FB60F9211242F933F9377
:101B40004F935F936F937F938F939F93AF93BF93C5
:101B5000EF93FF93DF93CF93CDB7DEB78091EF0183
:101B60009091F001A091F101B091F2010196A11DB7
:101B7000B11D8093EF019093F001A093F101B09318
:101B8000F2012091EF013091F0014091F10150916B
:101B9000F2018091FF0190910002A0910102B091A9
:101BA0000202281739074A075B0769F41092EF0110
:101BB0001092F0011092F1011092F201E0913E02B8
:101BC000F0913F020995CF91DF91FF91EF91BF9185
:101BD000AF919F918F917F916F915F914F913F91C5
:101BE0002F910F900FBE0F901F9018951F920F927C
:101BF0000FB60F9211242F933F934F935F936F93E0
:101C00007F938F939F93AF93BF93EF93FF93DF9354
:101C1000CF93CDB7DEB78091F3019091F401A091FD
:101C2000F501B091F6010196A11DB11D8093F3015C
:101C30009093F401A093F501B093F6012091F30184
:101C40003091F4014091F5015091F6018091FF012E
:101C500090910002A0910102B09102022817390769
:101C60004A075B07D1F41092F3011092F40110922D
:101C7000F5011092F60180910B0290910C02A09157
:101C80000D02B0910E029C0182E0B9010E94370A58
:101C9000E0914202F09143020995CF91DF91FF91CB
:101CA000EF91BF91AF919F918F917F916F915F91D4
:101CB0004F913F912F910F900FBE0F901F9018954D
:101CC0001F920F920FB60F9211242F933F934F93B1
:101CD0005F936F937F938F939F93AF93BF93EF9394
:101CE000FF93DF93CF93CDB7DEB7E0914602F0913B
:101CF00047020995CF91DF91FF91EF91BF91AF918D
:101D00009F918F917F916F915F914F913F912F9113
:101D10000F900FBE0F901F9018951F920F920FB645
:101D20000F9211242F933F934F935F936F937F9361
:101D30008F939F93AF93BF93EF93FF93DF93CF93D3
:101D4000CDB7DEB7E0914402F09145020995CF91FD
:101D5000DF91FF91EF91BF91AF919F918F917F9113
:101D60006F915F914F913F912F910F900FBE0F9008
:101D70001F901895DF93CF93CDB7DEB7ADE2B0E0FB
:101D8000EDE2F0E080818C7F8C93AEE2B0E0EEE299
:101D9000F0E0808181608C93ADE2B0E0EDE2F0E0B4
:101DA0008081877F8C93ADE2B0E0EDE2F0E080814E
:101DB0008B7F8C93ADE2B0E0EDE2F0E08081806259
:101DC0008C93ADE2B0E0EDE2F0E0808180618C9335
:101DD00081E065E041E00E94B51281E066E040E00C
:101DE0000E94B51281E067E041E00E94B51281E0F7
:101DF00064E041E00E94B512ADE2B0E0EDE2F0E057
:101E0000808180648C93CF91DF910895DF93CF938D
:101E1000CDB7DEB7ADE2B0E0EDE2F0E080818C7FDF
:101E20008C93AEE2B0E0EEE2F0E0808181608C93D2
:101E3000ADE2B0E0EDE2F0E08081877F8C93ADE22F
:101E4000B0E0EDE2F0E080818B7F8C93ADE2B0E01A
:101E5000EDE2F0E0808180628C93ADE2B0E0EDE2F3
:101E6000F0E080818F7E8C9381E065E040E00E940D
:101E7000B51281E066E041E00E94B51281E067E0C2
:101E800040E00E94B51281E064E040E00E94B5129B
:101E9000ADE2B0E0EDE2F0E0808180648C93CF9120
:101EA000DF910895DF93CF930F92CDB7DEB789838B
:101EB000EFE2F0E089818083EEE2F0E08081882328
:101EC000DCF7EFE2F0E080810F90CF91DF91089591
:101ED000DF93CF930F92CDB7DEB78983EFE2F0E0C7
:101EE00089818083EEE2F0E080818823DCF70F9027
:101EF000CF91DF910895DF93CF9300D000D000D031
:101F0000CDB7DEB79E838D8319821A821B821C8215
:101F100015C029813A818D819E81FC01E20FF31F5A
:101F200080810E94680F89819A81AB81BC81019672
:101F3000A11DB11D89839A83AB83BC8329813A811A
:101F40008D819E81FC01E20FF31F8081882309F7B8
:101F500026960FB6F894DEBF0FBECDBFCF91DF91AE
:101F60000895DF93CF93CDB7DEB7EEE2F0E0808146
:101F70008823DCF7EFE2F0E08081CF91DF910895D4
:101F8000DF93CF9300D0CDB7DEB79A8389830E94C9
:101F90007A11ADE2B0E0EDE2F0E0808180688C93F0
:101FA00089819A8190934902809348020F900F9003
:101FB000CF91DF9108951F920F920FB60F921124C7
:101FC0002F933F934F935F936F937F938F939F9341
:101FD000AF93BF93EF93FF93DF93CF93CDB7DEB76C
:101FE000E0914802F0914902AFE2B0E08C9109958E
:101FF000CF91DF91FF91EF91BF91AF919F918F9121
:102000007F916F915F914F913F912F910F900FBEF4
:102010000F901F901895DF93CF930F92CDB7DEB737
:102020008983E0E2F0E082E08083A1E2B0E0E1E2D7
:10203000F0E080818E7F8C93A1E2B0E0E1E2F0E0FD
:1020400080818D7F8C938981882329F0E2E2F0E002
:102050008981880F8083A6E5B0E0E6E5F0E0808125
:1020600084608C930F90CF91DF910895DF93CF938D
:102070000F92CDB7DEB78983E2E2F0E08981880F65
:102080008083A6E5B0E0E6E5F0E0808184608C9393
:102090000F90CF91DF910895DF93CF930F92CDB73B
:1020A000DEB71982E6E5F0E084EA8083E6E5F0E059
:1020B00080818823DCF7E1E2F0E08081882F90E0E6
:1020C000887F90708830910511F081E08983898143
:1020D0000F90CF91DF910895DF93CF930F92CDB7FB
:1020E000DEB71982E6E5F0E084EA8083E6E5F0E019
:1020F00080818823DCF7E1E2F0E08081882F90E0A6
:10210000887F90708031910511F082E08983898108
:102110000F90CF91DF910895DF93CF9300D0CDB78B
:10212000DEB78A831982E3E2F0E08A818083E6E504
:10213000F0E084E88083E6E5F0E080818823DCF746
:10214000E1E2F0E08081882F90E0887F9070883213
:10215000910511F085E0898389810F900F90CF91CF
:10216000DF910895DF93CF9300D00F92CDB7DEB704
:102170009B838A831982E6E5F0E084E88083E6E5C4
:10218000F0E080818823DCF7E1E2F0E08081882FB5
:1021900090E0887F90708835910519F086E08983FA
:1021A00006C0E3E2F0E08081EA81FB8180838981DF
:1021B0000F900F900F90CF91DF910895DF93CF9301
:1021C00000D00F92CDB7DEB79B838A831982E6E5F4
:1021D000F0E084EC8083E6E5F0E080818823DCF7A2
:1021E000E1E2F0E08081882F90E0887F9070803578
:1021F000910519F086E0898306C0E3E2F0E0808172
:10220000EA81FB818083E6E5F0E084E88083E6E50F
:10221000F0E080818823DCF789810F900F900F9088
:10222000CF91DF910895DF93CF9300D0CDB7DEB784
:102230008A831982E3E2F0E08A81880F8083A3E237
:10224000B0E0E3E2F0E080818E7F8C93E6E5F0E0A1
:1022500084E88083E6E5F0E080818823DCF7E1E232
:10226000F0E08081882F90E0887F90708831910520
:1022700011F083E0898389810F900F90CF91DF91D6
:102280000895DF93CF9300D0CDB7DEB78A8319824C
:10229000E3E2F0E08A81880F8083A3E2B0E0E3E22A
:1022A000F0E0808181608C93E6E5F0E084E8808353
:1022B000E6E5F0E080818823DCF7E1E2F0E0808170
:1022C000882F90E0887F90708034910511F084E031
:1022D000898389810F900F90CF91DF910895DF93CB
:1022E000CF93CDB7DEB7E6E5F0E084E98083CF9108
:1022F000DF910895DF93CF93CDB7DEB7AFE5B0E0C0
:10230000EFE5F0E0808180688C93CF91DF910895B4
:10231000DF93CF93CDB7DEB7AFE5B0E0EFE5F0E008
:1023200080818F778C93CF91DF910895DF93CF9346
:10233000CDB7DEB783E062E040E00E94B51283E0F3
:1023400062E041E00E947013ABE5B0E0EBE5F0E045
:10235000808180648C93A5E5B0E0E5E5F0E08081C4
:102360008C7F82608C93CF91DF910895DF93CF9320
:10237000CDB7DEB783E063E040E00E94B51283E0B2
:1023800063E041E00E947013ABE5B0E0EBE5F0E004
:10239000808180688C93A5E5B0E0E5E5F0E0808180
:1023A000837F88608C93CF91DF910895DF93CF93E3
:1023B000CDB7DEB781E062E040E00E94B51281E077
:1023C00062E041E00E947013ABE5B0E0EBE5F0E0C5
:1023D000808180628C93A4E5B0E0E4E5F0E0808148
:1023E0008F7B8C93CF91DF910895DF93CF9300D0B3
:1023F00000D00F92CDB7DEB79A8389836B838B8130
:10240000282F30E03D832C838C819D818130910584
:1024100081F02C813D812230310591F08C819D81AC
:102420000097A1F489819A819093100280930F0202
:102430000DC089819A81909312028093110206C087
:1024400089819A8190931402809313020F900F90C8
:102450000F900F900F90CF91DF9108951F920F92E0
:102460000FB60F9211242F933F934F935F936F9367
:102470007F938F939F93AF93BF93EF93FF93DF93DC
:10248000CF93CDB7DEB7E0910F02F091100209951E
:10249000CF91DF91FF91EF91BF91AF919F918F917C
:1024A0007F916F915F914F913F912F910F900FBE50
:1024B0000F901F9018951F920F920FB60F92112434
:1024C0002F933F934F935F936F937F938F939F933C
:1024D000AF93BF93EF93FF93DF93CF93CDB7DEB767
:1024E000E0911102F09112020995CF91DF91FF91D5
:1024F000EF91BF91AF919F918F917F916F915F917C
:102500004F913F912F910F900FBE0F901F901895F4
:102510001F920F920FB60F9211242F933F934F9358
:102520005F936F937F938F939F93AF93BF93EF933B
:10253000FF93DF93CF93CDB7DEB7E0911302F09115
:1025400014020995CF91DF91FF91EF91BF91AF9167
:102550009F918F917F916F915F914F913F912F91BB
:102560000F900FBE0F901F901895DF93CF9300D060
:1025700000D00F92CDB7DEB789836A834B83898100
:10258000282F30E03D832C836C817D816130710583
:10259000D1F18C819D818230910534F42C813D8173
:1025A0002115310571F094C06C817D816230710517
:1025B00009F44BC08C819D818330910509F467C07B
:1025C00087C0AAE3B0E0EAE3F0E08081482F8A8187
:1025D000282F30E081E090E002C0880F991F2A95F3
:1025E000E2F7809548238B81282F30E08A81882F5D
:1025F00090E0B90102C0660F771F8A95E2F7CB0120
:10260000842B8C9365C0A7E3B0E0E7E3F0E0808122
:10261000482F8A81282F30E081E090E002C0880FA7
:10262000991F2A95E2F7809548238B81282F30E067
:102630008A81882F90E0B90102C0660F771F8A95C2
:10264000E2F7CB01842B8C9343C0A4E3B0E0E4E336
:10265000F0E08081482F8A81282F30E081E090E0EF
:1026600002C0880F991F2A95E2F7809548238B8135
:10267000282F30E08A81882F90E0B90102C0660FD0
:10268000771F8A95E2F7CB01842B8C9321C0A1E3BD
:10269000B0E0E1E3F0E08081482F8A81282F30E02C
:1026A00081E090E002C0880F991F2A95E2F780959B
:1026B00048238B81282F30E08A81882F90E0B90150
:1026C00002C0660F771F8A95E2F7CB01842B8C93AB
:1026D0000F900F900F900F900F90CF91DF91089572
:1026E000DF93CF9300D000D00F92CDB7DEB78983B0
:1026F0006A834B838981282F30E03D832C836C8152
:102700007D8161307105D1F18C819D81823091058F
:1027100034F42C813D812115310571F094C06C8118
:102720007D816230710509F44BC08C819D818330BD
:10273000910509F467C087C0ABE3B0E0EBE3F0E0DC
:102740008081482F8A81282F30E081E090E002C00C
:10275000880F991F2A95E2F7809548238B81282FAF
:1027600030E08A81882F90E0B90102C0660F771FA0
:102770008A95E2F7CB01842B8C9365C0A8E3B0E087
:10278000E8E3F0E08081482F8A81282F30E081E063
:1027900090E002C0880F991F2A95E2F780954823A0
:1027A0008B81282F30E08A81882F90E0B90102C008
:1027B000660F771F8A95E2F7CB01842B8C9343C079
:1027C000A5E3B0E0E5E3F0E08081482F8A81282F7F
:1027D00030E081E090E002C0880F991F2A95E2F76F
:1027E000809548238B81282F30E08A81882F90E0C4
:1027F000B90102C0660F771F8A95E2F7CB01842BDF
:102800008C9321C0A2E3B0E0E2E3F0E08081482FA6
:102810008A81282F30E081E090E002C0880F991F64
:102820002A95E2F7809548238B81282F30E08A8112
:10283000882F90E0B90102C0660F771F8A95E2F7F2
:10284000CB01842B8C930F900F900F900F900F90D3
:10285000CF91DF910895DF93CF9300D000D0CDB713
:10286000DEB789836A838981282F30E03C832B83FC
:102870008B819C818130910549F12B813C812230F3
:1028800031052CF48B819C81009761F05AC02B811B
:102890003C812230310571F18B819C81833091051F
:1028A000E9F14FC0ABE3B0E0EBE3F0E08081482F0B
:1028B0008A81282F30E081E090E0022E02C0880F4C
:1028C000991F0A94E2F784278C933BC0A8E3B0E0F9
:1028D000E8E3F0E08081482F8A81282F30E081E012
:1028E00090E0022E02C0880F991F0A94E2F7842715
:1028F0008C9327C0A5E3B0E0E5E3F0E08081482FAA
:102900008A81282F30E081E090E0022E02C0880FFB
:10291000991F0A94E2F784278C9313C0A2E3B0E0D6
:10292000E2E3F0E08081482F8A81282F30E081E0C7
:1029300090E0022E02C0880F991F0A94E2F78427C4
:102940008C930F900F900F900F90CF91DF9108957F
:10295000DF93CF9300D000D00F92CDB7DEB78A833C
:102960006B838A81282F30E03D832C834C815D81ED
:102970004130510541F18C819D818230910534F4C3
:102980002C813D812115310561F052C04C815D8162
:102990004230510551F18C819D8183309105B9F10F
:1029A00047C0EAE3F0E08081282F30E08B81882F58
:1029B00090E0A90102C0559547958A95E2F7CA01B2
:1029C0008170898335C0E6E3F0E08081282F30E014
:1029D0008B81882F90E0A90102C0559547958A9573
:1029E000E2F7CA018170898323C0E3E3F0E08081CC
:1029F000282F30E08B81882F90E0A90102C05595E7
:102A000047958A95E2F7CA018170898311C0E0E396
:102A1000F0E08081282F30E08B81882F90E0A901A1
:102A200002C0559547958A95E2F7CA01817089835E
:102A300089810F900F900F900F900F90CF91DF91A1
:102A40000895DF93CF9300D000D0CDB7DEB7898350
:102A50006A838981282F30E03C832B838B819C8182
:102A600081309105D1F02B813C81223031052CF44D
:102A70008B819C81009761F01EC02B813C812230AC
:102A8000310581F08B819C818330910581F013C0E9
:102A9000EAE3F0E08A8180830EC0E7E3F0E08A8118
:102AA000808309C0E4E3F0E08A81808304C0E1E32D
:102AB000F0E08A8180830F900F900F900F90CF915C
:102AC000DF910895DF93CF9300D000D0CDB7DEB76C
:102AD00089836A838981282F30E03C832B838B8113
:102AE0009C8181309105D1F02B813C8122303105D0
:102AF0002CF48B819C81009761F01EC02B813C815E
:102B00002230310581F08B819C818330910581F0E9
:102B100013C0EBE3F0E08A8180830EC0E8E3F0E0CD
:102B20008A81808309C0E5E3F0E08A81808304C064
:102B3000E2E3F0E08A8180830F900F900F900F9076
:102B4000CF91DF910895DF93CF9300D00F92CDB74F
:102B5000DEB789838981282F30E03B832A838A81ED
:102B60009B8181309105E9F02A813B81223031053A
:102B70002CF48A819B81009761F02AC02A813B81D5
:102B800022303105B1F08A819B8183309105C9F0F3
:102B90001FC0ABE3B0E0EBE3F0E0808180958C9365
:102BA00017C0A8E3B0E0E8E3F0E0808180958C9363
:102BB0000FC0A5E3B0E0E5E3F0E0808180958C9361
:102BC00007C0A2E3B0E0E2E3F0E0808180958C935F
:102BD0000F900F900F90CF91DF910895DF93CF93D7
:102BE00000D000D0CDB7DEB78A838A81282F30E0AD
:102BF0003C832B838B819C8181309105D1F02B818B
:102C00003C81223031052CF48B819C81009761F04E
:102C10001EC02B813C812230310581F08B819C814B
:102C20008330910581F013C0EAE3F0E0808189836D
:102C30000EC0E6E3F0E08081898309C0E3E3F0E0C1
:102C40008081898304C0E0E3F0E080818983898109
:102C50000F900F900F900F90CF91DF910895DF9319
:102C6000CF93CDB7DEB7A7E2B0E0E7E2F0E0808136
:102C700080648C93A7E2B0E0E7E2F0E080818F7798
:102C80008C93A6E2B0E0E6E2F0E0808180688C936D
:102C9000A7E2B0E0E7E2F0E080818F7D8C93A6E2CE
:102CA000B0E0E6E2F0E0808187608C93CF91DF9125
:102CB0000895DF93CF930F92CDB7DEB78983A7E254
:102CC000B0E0E7E2F0E08081982F907E8981892B47
:102CD0008C93A6E2B0E0E6E2F0E0808180648C9321
:102CE000E6E2F0E0808182958F70882F90E081701D
:102CF00090700097A9F3A6E2B0E0E6E2F0E08081F0
:102D000080618C93E4E2F0E0808191810F90CF911B
:102D1000DF910895DF93CF9300D00F92CDB7DEB748
:102D20009A8389836B83A7E2B0E0E7E2F0E08081D9
:102D3000982F907E8B81892B8C93A6E2B0E0E6E2FF
:102D4000F0E0808188608C9389819A8190934B0216
:102D500080934A02A6E2B0E0E6E2F0E0808180647F
:102D60008C930F900F900F90CF91DF9108951F9249
:102D70000F920FB60F9211242F933F934F935F93AF
:102D80006F937F938F939F93AF93BF93EF93FF9333
:102D9000DF93CF93CDB7DEB720914A0230914B023B
:102DA000E4E2F0E080819181F9010995A6E2B0E0CA
:102DB000E6E2F0E08081877F8C93CF91DF91FF91F5
:102DC000EF91BF91AF919F918F917F916F915F91A3
:102DD0004F913F912F910F900FBE0F901F9018951C
:102DE000DF93CF9300D00F92CDB7DEB7898389816F
:102DF000282F30E03B832A838A819B818130910593
:102E0000D9F02A813B81223031052CF48A819B81C3
:102E1000009761F022C02A813B812230310591F078
:102E20008A819B818330910599F017C081E067E02A
:102E300041E00E94B51211C081E066E041E00E94CD
:102E4000B5120BC081E067E041E00E94B51205C0F9
:102E500081E066E041E00E94B5120F900F900F9064
:102E6000CF91DF910895DF93CF9300D00F92CDB72C
:102E7000DEB789838981282F30E03B832A838A81CA
:102E80009B8181309105D9F02A813B812230310527
:102E90002CF48A819B81009761F022C02A813B81BA
:102EA0002230310591F08A819B818330910599F020
:102EB00017C081E067E041E00E94701311C081E01B
:102EC00066E041E00E9470130BC081E067E041E0E2
:102ED0000E94701305C081E066E041E00E9470131B
:102EE0000F900F900F90CF91DF910895DF93CF93C4
:102EF00000D00F92CDB7DEB789838981282F30E0CB
:102F00003B832A838A819B8181309105D9F02A8174
:102F10003B81223031052CF48A819B81009761F03E
:102F200022C02A813B812230310591F08A819B8128
:102F30008330910599F017C081E067E040E00E947E
:102F4000701311C081E066E040E00E9470130BC076
:102F500081E067E040E00E94701305C081E066E018
:102F600040E00E9470130F900F900F90CF91DF916F
:102F70000895DF93CF93CDB7DEB70E942F16CF9180
:102F8000DF910895DF93CF93CDB7DEB72A970FB6C1
:102F9000F894DEBF0FBECDBF80E00E9459169A871D
:102FA000898789859A85CC01A0E0B0E0BC01CD017C
:102FB0000E940705DC01CB01BC01CD0120E030E41B
:102FC0004CE955E40E941F02DC01CB01BC01CD019C
:102FD00020E030E040E854E40E941903DC01CB011A
:102FE0008D839E83AF83B8876D817E818F81988525
:102FF00020E030E040E251E40E941903DC01CB0103
:1030000089839A83AB83BC8389819A81AB81BC819C
:10301000BC01CD012A960FB6F894DEBF0FBECDBF1E
:10302000CF91DF910895DF93CF9300D000D00F921E
:10303000CDB7DEB789838981282F30E03D832C838B
:103040008C819D8183309105D9F12C813D81243083
:1030500031057CF48C819D818130910529F12C8191
:103060003D812230310534F58C819D810097B1F08E
:1030700044C02C813D812530310571F18C819D81C9
:10308000853091051CF12C813D812630310551F1AF
:103090008C819D818730910559F12FC083E060E0DC
:1030A00040E00E94B51229C083E061E040E00E9448
:1030B000B51223C083E062E040E00E94B5121DC05B
:1030C00083E063E040E00E94B51217C083E064E053
:1030D00040E00E94B51211C083E065E040E00E942C
:1030E000B5120BC083E066E040E00E94B51205C057
:1030F00083E067E040E00E94B5128981282F30E02C
:103100003B832A838A819B8183309105D9F12A816F
:103110003B81243031057CF48A819B81813091058B
:1031200029F12A813B812230310534F58A819B8146
:103130000097B1F044C02A813B812530310571F1FF
:103140008A819B81853091051CF12A813B81263043
:10315000310551F18A819B818730910559F12FC04A
:1031600083E060E041E00E94701329C083E061E0E9
:1031700041E00E94701323C083E062E041E00E94BE
:1031800070131DC083E063E041E00E94701317C01C
:1031900083E064E041E00E94701311C083E065E0C9
:1031A00041E00E9470130BC083E066E041E00E94A2
:1031B000701305C083E067E041E00E9470130F9038
:1031C0000F900F900F900F90CF91DF910895DF93A4
:1031D000CF93CDB7DEB780E00E94131881E00E9444
:1031E000131882E00E94131883E00E94131884E0F1
:1031F0000E94131885E00E94131886E00E9413189D
:1032000087E00E941318CF91DF910895DF93CF9349
:1032100000D000D0CDB7DEB78A838A81282F30E076
:103220003C832B838B819C8183309105D9F12B8149
:103230003C81243031057CF48B819C818130910567
:1032400029F12B813C812230310534F58B819C8121
:103250000097B1F044C02B813C812530310571F1DC
:103260008B819C81853091051CF12B813C8126301E
:10327000310551F18B819C818730910559F12FC027
:1032800083E060E00E94A814898329C083E061E0A4
:103290000E94A814898323C083E062E00E94A814DE
:1032A00089831DC083E063E00E94A814898317C04E
:1032B00083E064E00E94A814898311C083E065E084
:1032C0000E94A81489830BC083E066E00E94A814C2
:1032D000898305C083E067E00E94A81489838981FF
:1032E000882319F481E0898301C0198289810F90B4
:1032F0000F900F900F90CF91DF9108951F93DF9360
:10330000CF930F92CDB7DEB780E00E940619182F39
:1033100081E00E940619882F90E0880F991F182BD2
:1033200083E00E940619882F90E0880F991F880F6C
:10333000991F880F991F182B84E00E940619882F67
:1033400090E082959295907F9827807F9827182B00
:1033500085E00E940619882F90E0880F991F8295BA
:103360009295907F9827807F9827182B86E00E945F
:103370000619882F90E000249695879507949695D6
:1033800087950794982F802D182B87E00E940619A7
:10339000882F90E09695982F882797958795812B71
:1033A000898389810F90CF91DF911F910895DF93D9
:1033B000CF93CDB7DEB780E060E041E00E94B51268
:1033C00080E062E041E00E94B51280E061E041E00F
:1033D0000E94B51280E063E041E00E94B512CF91F7
:1033E000DF910895DF93CF930F92CDB7DEB7898336
:1033F0008981809315020F90CF91DF910895DF931B
:10340000CF930F92CDB7DEB78983809115028823C1
:10341000D1F58981882F90E0AA2797FDA095BA2F32
:10342000BC01CD010E945504DC01CB01BC01CD01E2
:1034300023E039EF4FEF54E40E941F02DC01CB017F
:103440009C01AD0160E070E080E792E40E94190306
:10345000DC01CB01BC01CD0120E030E04AE754E4BF
:103460000E941F02DC01CB01BC01CD010E941E3570
:10347000DC01CB01BC01CD010E944900DC01CB0184
:103480008093920139C08981882F90E0AA2797FD07
:10349000A095BA2FBC01CD010E945504DC01CB01DF
:1034A000BC01CD0123E039EF4FE755E40E941F0234
:1034B000DC01CB019C01AD0160E070E080E792E4AB
:1034C0000E941903DC01CB01BC01CD0120E030E0FA
:1034D0004AE754E40E941F02DC01CB01BC01CD018C
:1034E0000E941E35DC01CB01BC01CD010E944900C8
:1034F000DC01CB01809392010F90CF91DF91089571
:10350000DF93CF93CDB7DEB7C954D0400FB6F89450
:10351000DEBF0FBECDBFFE01ED5BFF4F808380910C
:103520001502282F30E02A963FAF2EAF2A972A9611
:103530008EAD9FAD2A97009749F02A96EEADFFAD6C
:103540002A97E130F10509F4D0C18BC3FE01ED5B90
:10355000FF4F8081282F30E028963FAF2EAF28976D
:1035600028968EAD9FAD2897009709F4F4C0289651
:10357000EEADFFAD2897E130F10509F072C3FE0111
:10358000FF961082118212821382D8C0FE01FF962C
:1035900080819181A281B381880F991F880F991F23
:1035A000FC01ED54FE4F908180E060E0492F0E94C5
:1035B0007013FE01FF9680819181A281B381880FF3
:1035C000991F880F991FFC01EC54FE4F908180E0F9
:1035D00062E0492F0E947013FE01FF968081918165
:1035E000A281B381880F991F0196880F991FFC0152
:1035F000ED54FE4F908180E061E0492F0E947013EE
:10360000FE01FF9680819181A281B381880F991F6D
:10361000880F991FFC01EA54FE4F908180E063E01F
:10362000492F0E94701380919201882F90E0A0E0B2
:10363000B0E0BC01CD010E940705DC01CB018DABE0
:103640009EABAFABB8AF6DA97EA98FA998AD20E0B6
:1036500030E04AEF54E40E941F02DC01CB0189AB49
:103660009AABABABBCAB69A97AA98BA99CA920E0AA
:1036700030E040E85FE30E94250488232CF481E0D9
:1036800090E098AB8FA73FC069A97AA98BA99CA9A4
:1036900020E03FEF4FE757E40E94C50318164CF5B2
:1036A0006DA97EA98FA998AD20E030E040E251E4F9
:1036B0000E941F02DC01CB01BC01CD010E94490028
:1036C000DC01CB0198AB8FA70FC088EC90E09EA7E0
:1036D0008DA78DA59EA50197F1F79EA78DA78FA514
:1036E00098A9019798AB8FA78FA598A9009769F71C
:1036F00014C069A97AA98BA99CA90E944900DC0180
:10370000CB0198AB8FA78FA598A99CA78BA78BA55A
:103710009CA50197F1F79CA78BA79E01215C3F4FC9
:10372000FE01FF9680819181A281B3810196A11D46
:10373000B11DF90180839183A283B383FE01FF96BB
:1037400080819181A281B38184309105A105B10569
:1037500008F41CCF86C283E08EAFC2C08EAD99271D
:1037600087FD9095880F991F880F991FFC01ED54D4
:10377000FE4F908180E060E0492F0E9470138EAD73
:10378000992787FD9095880F991F880F991FFC0135
:10379000EC54FE4F908180E062E0492F0E9470134C
:1037A0008EAD992787FD9095880F991F0196880FF8
:1037B000991FFC01ED54FE4F908180E061E0492F9C
:1037C0000E9470138EAD992787FD9095880F991FE1
:1037D000880F991FFC01EA54FE4F908180E063E05E
:1037E000492F0E94701380919201882F90E0A0E0F1
:1037F000B0E0BC01CD010E940705DC01CB018FA325
:1038000098A7A9A7BAA76FA178A589A59AA520E02E
:1038100030E04AEF54E40E941F02DC01CB018BA38D
:103820009CA3ADA3BEA36BA17CA18DA19EA120E012
:1038300030E040E85FE30E94250488232CF481E017
:1038400090E09AA389A33FC06BA17CA18DA19EA10A
:1038500020E03FEF4FE757E40E94C50318164CF5F0
:103860006FA178A589A59AA520E030E040E251E457
:103870000E941F02DC01CB01BC01CD010E94490066
:10388000DC01CB019AA389A30FC088EC90E098A338
:103890008F8F8F8D98A10197F1F798A38F8F89A1B2
:1038A0009AA101979AA389A389A19AA1009769F780
:1038B00014C06BA17CA18DA19EA10E944900DC01D6
:1038C000CB019AA389A389A19AA19E8F8D8F8D8DFB
:1038D0009E8D0197F1F79E8F8D8F8EAD81508EAFAB
:1038E0008EAD88230CF03ACFBCC1FE01ED5BFF4FDB
:1038F0008081282F30E026963FAF2EAF2697269660
:103900008EAD9FAD2697009709F4E2C02696EEADE6
:10391000FFAD2697E130F10509F0A3C11AAE1BAE49
:103920001CAE1DAECAC08AAD9BADACADBDAD880F9F
:10393000991F880F991FFC01ED56FE4F908180E082
:1039400060E0492F0E9470138AAD9BADACADBDAD58
:10395000880F991F880F991FFC01EC56FE4F90812C
:1039600080E062E0492F0E9470138AAD9BADACAD40
:10397000BDAD880F991F0196880F991FFC01ED5668
:10398000FE4F908180E061E0492F0E9470138AAD64
:103990009BADACADBDAD880F991F880F991FFC0181
:1039A000EA56FE4F908180E063E0492F0E94701339
:1039B00080919201882F90E0A0E0B0E0BC01CD01A1
:1039C0000E940705DC01CB01898F9A8FAB8FBC8FDA
:1039D000698D7A8D8B8D9C8D20E030E04AEF54E428
:1039E0000E941F02DC01CB018D8B9E8BAF8BB88FA9
:1039F0006D897E898F89988D20E030E040E85FE313
:103A00000E94250488232CF481E090E09C8B8B8B12
:103A10003FC06D897E898F89988D20E03FEF4FE709
:103A200057E40E94C50318164CF5698D7A8D8B8D6D
:103A30009C8D20E030E040E251E40E941F02DC0156
:103A4000CB01BC01CD010E944900DC01CB019C8B64
:103A50008B8B0FC088EC90E09A8B898B89899A892F
:103A60000197F1F79A8B898B8B899C8901979C8BA5
:103A70008B8B8B899C89009769F714C06D897E892F
:103A80008F89988D0E944900DC01CB019C8B8B8B28
:103A90008B899C89988B8F878F8598890197F1F7FF
:103AA000988B8F878AAD9BADACADBDAD0196A11D46
:103AB000B11D8AAF9BAFACAFBDAF8AAD9BADACAD16
:103AC000BDAD88309105A105B10508F42CCFC9C062
:103AD00087E089AFC2C089AD992787FD9095880F8F
:103AE000991F880F991FFC01ED56FE4F908180E0D1
:103AF00060E0492F0E94701389AD992787FD90954A
:103B0000880F991F880F991FFC01EC56FE4F90817A
:103B100080E062E0492F0E94701389AD992787FDEC
:103B20009095880F991F0196880F991FFC01ED56FB
:103B3000FE4F908180E061E0492F0E94701389ADB3
:103B4000992787FD9095880F991F880F991FFC0171
:103B5000EA56FE4F908180E063E0492F0E94701387
:103B600080919201882F90E0A0E0B0E0BC01CD01EF
:103B70000E940705DC01CB018B879C87AD87BE8740
:103B80006B857C858D859E8520E030E04AEF54E48E
:103B90000E941F02DC01CB018F839887A987BA8717
:103BA0006F81788589859A8520E030E040E85FE381
:103BB0000E94250488232CF481E090E09E838D836D
:103BC0003FC06F81788589859A8520E03FEF4FE778
:103BD00057E40E94C50318164CF56B857C858D85CE
:103BE0009E8520E030E040E251E40E941F02DC01AB
:103BF000CB01BC01CD010E944900DC01CB019E83B9
:103C00008D830FC088EC90E09C838B838B819C819B
:103C10000197F1F79C838B838D819E8101979E8311
:103C20008D838D819E81009769F714C06F8178859F
:103C300089859A850E944900DC01CB019E838D8392
:103C40008D819E819A83898389819A810197F1F779
:103C50009A83898389AD815089AF89AD88230CF01F
:103C60003ACFC75BDF4F0FB6F894DEBF0FBECDBFB4
:103C7000CF91DF9108950F931F93DF93CF93CDB72B
:103C8000DEB7C156D0400FB6F894DEBF0FBECDBF31
:103C9000FE01E95AFF4F8083FE01E85AFF4F40833F
:103CA00051836283738380911502282F30E0A2969E
:103CB0003FAF2EAFA297A2968EAD9FADA297009771
:103CC00049F0A296EEADFFADA297E130F10509F4FF
:103CD00076C2BCC4FE01E85AFF4F608171818281C7
:103CE00093810E940705DC01CB01BC01CD012AEEC6
:103CF00034E044E35FE30E941903DC01CB01BC0123
:103D0000CD010E941E35DC01CB018E010D5A1F4FE3
:103D1000BC01CD010E944900DC01CB01F801808388
:103D20009183A283B383FE01E95AFF4F8081282F3C
:103D300030E0A0963FAF2EAFA097A0968EAD9FAD7E
:103D4000A097009709F42AC1A096EEADFFADA09709
:103D5000E130F10509F07AC4FE01E15BFF4F10820A
:103D600011821282138204C1FE01E55BFF4F1082B3
:103D7000118212821382DDC0FE01E55BFF4F80815C
:103D80009181A281B381880F991F880F991FFC012F
:103D9000ED54FE4F908180E060E0492F0E94701347
:103DA000FE01E55BFF4F80819181A281B381880F85
:103DB000991F880F991FFC01EC54FE4F908180E001
:103DC00062E0492F0E947013FE01E55BFF4F808186
:103DD0009181A281B381880F991F0196880F991F45
:103DE000FC01ED54FE4F908180E061E0492F0E947C
:103DF0007013FE01E55BFF4F80819181A281B38149
:103E0000880F991F880F991FFC01EA54FE4F90817B
:103E100080E063E0492F0E94701380919201882F07
:103E200090E0A0E0B0E0BC01CD010E940705DC01FC
:103E3000CB018DAB9EABAFABB8AF6DA97EA98FA9FF
:103E400098AD20E030E04AEF54E40E941F02DC010C
:103E5000CB0189AB9AABABABBCAB69A97AA98BA9F7
:103E60009CA920E030E040E85FE30E94250488231D
:103E70002CF481E090E098AB8FA73FC069A97AA9A4
:103E80008BA99CA920E03FEF4FE757E40E94C503B0
:103E900018164CF56DA97EA98FA998AD20E030E0E9
:103EA00040E251E40E941F02DC01CB01BC01CD01C4
:103EB0000E944900DC01CB0198AB8FA70FC088ECB2
:103EC00090E09EA78DA78DA59EA50197F1F79EA7CF
:103ED0008DA78FA598A9019798AB8FA78FA598A9B3
:103EE000009769F714C069A97AA98BA99CA90E94B7
:103EF0004900DC01CB0198AB8FA78FA598A99CA79F
:103F00008BA78BA59CA50197F1F79CA78BA79E017A
:103F1000255B3F4FFE01E55BFF4F80819181A281D0
:103F2000B3810196A11DB11DF90180839183A28304
:103F3000B383FE01E55BFF4F80819181A281B38154
:103F400084309105A105B10508F416CF9E01215BCF
:103F50003F4FFE01E15BFF4F80819181A281B381E0
:103F60000196A11DB11DF90180839183A283B383C2
:103F7000FE01E15BFF4FDE01AD5ABF4F2081318171
:103F8000428153818D919D910D90BC91A02D281758
:103F900039074A075B0708F4E7CE58C3FE01E95B1F
:103FA000FF4F1082118212821382F3C0FE01EA5B7E
:103FB000FF4F83E08083D4C0FE01EA5BFF4F808126
:103FC000992787FD9095880F991F880F991FFC01ED
:103FD000ED54FE4F908180E060E0492F0E94701305
:103FE000FE01EA5BFF4F8081992787FD9095880F3E
:103FF000991F880F991FFC01EC54FE4F908180E0BF
:1040000062E0492F0E947013FE01EA5BFF4F80813E
:10401000992787FD9095880F991F0196880F991F02
:10402000FC01ED54FE4F908180E061E0492F0E9439
:104030007013FE01EA5BFF4F8081992787FD909501
:10404000880F991F880F991FFC01EA54FE4F908139
:1040500080E063E0492F0E94701380919201882FC5
:1040600090E0A0E0B0E0BC01CD010E940705DC01BA
:10407000CB018FA398A7A9A7BAA76FA178A589A5F7
:104080009AA520E030E04AEF54E40E941F02DC01D0
:10409000CB018BA39CA3ADA3BEA36BA17CA18DA1DF
:1040A0009EA120E030E040E85FE30E9425048823E1
:1040B0002CF481E090E09AA389A33FC06BA17CA17E
:1040C0008DA19EA120E03FEF4FE757E40E94C5037A
:1040D00018164CF56FA178A589A59AA520E030E0C7
:1040E00040E251E40E941F02DC01CB01BC01CD0182
:1040F0000E944900DC01CB019AA389A30FC088EC80
:1041000090E098A38F8F8F8D98A10197F1F798A3D6
:104110008F8F89A19AA101979AA389A389A19AA1B6
:10412000009769F714C06BA17CA18DA19EA10E948C
:104130004900DC01CB019AA389A389A19AA19E8F92
:104140008D8F8D8D9E8D0197F1F79E8F8D8FDE0166
:10415000AA5BBF4FFE01EA5BFF4F808181508C93C9
:10416000FE01EA5BFF4F808188230CF025CF9E0182
:10417000295B3F4FFE01E95BFF4F80819181A28166
:10418000B3810196A11DB11DF90180839183A283A2
:10419000B383FE01E95BFF4FDE01AD5ABF4F2081C3
:1041A0003181428153818D919D910D90BC91A02DC3
:1041B000281739074A075B0708F4F8CE47C2FE0103
:1041C000E85AFF4F60817181828193810E940705C7
:1041D000DC01CB01BC01CD012AEE34E044EB5EE30F
:1041E0000E941903DC01CB01BC01CD010E941E35E8
:1041F000DC01CB018E010D5A1F4FBC01CD010E9485
:104200004900DC01CB01F80180839183A283B38351
:10421000FE01E95AFF4F8081282F30E06E963FAFB4
:104220002EAF6E976E968EAD9FAD6E97009709F488
:1042300023C16E96EEADFFAD6E97E130F10509F04A
:1042400005C2FE01EE5BFF4F1082118212821382C3
:10425000FDC0FE01FE961082118212821382D8C028
:10426000FE01FE9680819181A281B381880F991F02
:10427000880F991FFC01ED56FE4F908180E060E0B1
:10428000492F0E947013FE01FE9680819181A281C8
:10429000B381880F991F880F991FFC01EC56FE4FC0
:1042A000908180E062E0492F0E947013FE01FE962B
:1042B00080819181A281B381880F991F0196880F17
:1042C000991FFC01ED56FE4F908180E061E0492F7F
:1042D0000E947013FE01FE9680819181A281B381BC
:1042E000880F991F880F991FFC01EA56FE4F908195
:1042F00080E063E0492F0E94701380919201882F23
:1043000090E0A0E0B0E0BC01CD010E940705DC0117
:10431000CB01898F9A8FAB8FBC8F698D7A8D8B8DF6
:104320009C8D20E030E04AEF54E40E941F02DC0143
:10433000CB018D8B9E8BAF8BB88F6D897E898F89DA
:10434000988D20E030E040E85FE30E942504882358
:104350002CF481E090E09C8B8B8B3FC06D897E8933
:104360008F89988D20E03FEF4FE757E40E94C50307
:1043700018164CF5698D7A8D8B8D9C8D20E030E080
:1043800040E251E40E941F02DC01CB01BC01CD01DF
:104390000E944900DC01CB019C8B8B8B0FC088EC09
:1043A00090E09A8B898B89899A890197F1F79A8B8A
:1043B000898B8B899C8901979C8B8B8B8B899C89A2
:1043C000009769F714C06D897E898F89988D0E9446
:1043D0004900DC01CB019C8B8B8B8B899C89988B52
:1043E0008F878F8598890197F1F7988B8F879E012A
:1043F000225C3F4FFE01FE9680819181A281B381B4
:104400000196A11DB11DF90180839183A283B3831D
:10441000FE01FE9680819181A281B3818830910551
:10442000A105B10508F41CCF9E012E5B3F4FFE0194
:10443000EE5BFF4F80819181A281B3810196A11D26
:10444000B11DF90180839183A283B383FE01EE5BEA
:10445000FF4FDE01AD5ABF4F208131814281538130
:104460008D919D910D90BC91A02D281739074A0779
:104470005B0708F4EECEEAC01AAE1BAE1CAE1DAE52
:10448000D4C087E089AFC2C089AD992787FD9095D8
:10449000880F991F880F991FFC01ED56FE4F9081E0
:1044A00080E060E0492F0E94701389AD992787FD55
:1044B0009095880F991F880F991FFC01EC56FE4FAD
:1044C000908180E062E0492F0E94701389AD9927A6
:1044D00087FD9095880F991F0196880F991FFC0101
:1044E000ED56FE4F908180E061E0492F0E947013ED
:1044F00089AD992787FD9095880F991F880F991F7F
:10450000FC01EA56FE4F908180E063E0492F0E9453
:10451000701380919201882F90E0A0E0B0E0BC0180
:10452000CD010E940705DC01CB018B879C87AD87FD
:10453000BE876B857C858D859E8520E030E04AEFC7
:1045400054E40E941F02DC01CB018F839887A98766
:10455000BA876F81788589859A8520E030E040E8C8
:104560005FE30E94250488232CF481E090E09E8381
:104570008D833FC06F81788589859A8520E03FEFE4
:104580004FE757E40E94C50318164CF56B857C85F0
:104590008D859E8520E030E040E251E40E941F02BC
:1045A000DC01CB01BC01CD010E944900DC01CB0143
:1045B0009E838D830FC088EC90E09C838B838B81DE
:1045C0009C810197F1F79C838B838D819E8101975C
:1045D0009E838D838D819E81009769F714C06F81C2
:1045E000788589859A850E944900DC01CB019E83EC
:1045F0008D838D819E819A83898389819A81019798
:10460000F1F79A83898389AD815089AF89AD882379
:104610000CF03ACF8AAD9BADACADBDAD0196A11DFE
:10462000B11D8AAF9BAFACAFBDAFFE01ED5AFF4FDE
:104630002AAD3BAD4CAD5DAD80819181A281B3814E
:10464000281739074A075B0708F41BCFCF59DF4FFC
:104650000FB6F894DEBF0FBECDBFCF91DF911F9193
:104660000F910895DF93CF9300D00F92CDB7DEB7AF
:1046700089838981282F30E03B832A838A819B812B
:10468000009731F02A813B8121303105A1F025C00E
:1046900082E06FEF0E94211582E067E041E00E9416
:1046A000B51283E060E00E94621582E067E040E0BE
:1046B0000E94701312C083E06FEF0E94211583E007
:1046C00067E041E00E94B51283E060E00E9462155D
:1046D00083E067E040E00E9470130F900F900F900E
:1046E000CF91DF910895DF93CF9300D00F92CDB794
:1046F000DEB789838981282F30E03B832A838A8132
:104700009B81009731F02A813B812130310539F0BE
:104710000BC082E067E040E00E94701305C083E0B8
:1047200067E040E00E9470130F900F900F90CF91C0
:10473000DF910895DF93CF9300D00F92CDB7DEB70E
:1047400089838981282F30E03B832A838A819B815A
:10475000009731F02A813B812130310539F00BC0BF
:1047600082E067E041E00E94701305C083E067E0EB
:1047700041E00E9470130F900F900F90CF91DF9146
:104780000895DF93CF9300D000D0CDB7DEB78983F3
:104790006A838981282F30E03C832B838B819C8125
:1047A000009731F02B813C812130310569F017C031
:1047B0008A81882F90E0FC01ED53FE4F908182E0CA
:1047C000692F0E9462150BC08A81882F90E0FC013E
:1047D000ED53FE4F908183E0692F0E9462150F9088
:1047E0000F900F900F90CF91DF910895DF93CF93AB
:1047F000CDB7DEB7A1970FB6F894DEBF0FBECDBF21
:104800008F8F8F8D282F30E039A328A388A199A1FD
:10481000009739F028A139A12130310509F490C061
:104820001DC11E8E84C08E8D282F30E081E090E067
:1048300002C0880F991F2A95E2F7982F82E0692F0E
:104840000E94621580E090E0AAEFB3E4898F9A8F0E
:10485000AB8FBC8F698D7A8D8B8D9C8D20E030E085
:104860004AEF54E40E941F02DC01CB018D8B9E8B2A
:10487000AF8BB88F6D897E898F89988D20E030E06D
:1048800040E85FE30E94250488232CF481E090E057
:104890009C8B8B8B3FC06D897E898F89988D20E0A2
:1048A0003FEF4FE757E40E94C50318164CF5698D9A
:1048B0007A8D8B8D9C8D20E030E040E251E40E94A7
:1048C0001F02DC01CB01BC01CD010E944900DC01CB
:1048D000CB019C8B8B8B0FC088EC90E09A8B898BE3
:1048E00089899A890197F1F79A8B898B8B899C89A1
:1048F00001979C8B8B8B8B899C89009769F714C0DF
:104900006D897E898F89988D0E944900DC01CB01D9
:104910009C8B8B8B8B899C89988B8F878F859889B3
:104920000197F1F7988B8F878E8D8F5F8E8F8E8D8D
:10493000843008F478CF82E060E00E9462158EC077
:104940001D8E84C08D8D282F30E081E090E002C064
:10495000880F991F2A95E2F7982F83E0692F0E940C
:10496000621580E090E0AAEFB3E48B879C87AD8767
:10497000BE876B857C858D859E8520E030E04AEF83
:1049800054E40E941F02DC01CB018F839887A98722
:10499000BA876F81788589859A8520E030E040E884
:1049A0005FE30E94250488232CF481E090E09E833D
:1049B0008D833FC06F81788589859A8520E03FEFA0
:1049C0004FE757E40E94C50318164CF56B857C85AC
:1049D0008D859E8520E030E040E251E40E941F0278
:1049E000DC01CB01BC01CD010E944900DC01CB01FF
:1049F0009E838D830FC088EC90E09C838B838B819A
:104A00009C810197F1F79C838B838D819E81019717
:104A10009E838D838D819E81009769F714C06F817D
:104A2000788589859A850E944900DC01CB019E83A7
:104A30008D838D819E819A83898389819A81019753
:104A4000F1F79A8389838D8D8F5F8D8F8D8D843063
:104A500008F478CF83E060E00E946215A1960FB65B
:104A6000F894DEBF0FBECDBFCF91DF910895DF93E5
:104A7000CF93CDB7DEB7ED970FB6F894DEBF0FBE7C
:104A8000CDBF8BAF8BAD282F30E03DAF2CAF8CADC1
:104A90009DAD009739F02CAD3DAD2130310509F4C5
:104AA00006C10AC283E08AAF84C08AAD282F30E0F5
:104AB00081E090E002C0880F991F2A95E2F7982FB5
:104AC00082E0692F0E94621580E090E0AAEFB3E4D3
:104AD0008DAB9EABAFABB8AF6DA97EA98FA998ADDA
:104AE00020E030E04AEF54E40E941F02DC01CB01D9
:104AF00089AB9AABABABBCAB69A97AA98BA99CA9D2
:104B000020E030E040E85FE30E94250488232CF495
:104B100081E090E098AB8FA73FC069A97AA98BA9E3
:104B20009CA920E03FEF4FE757E40E94C503181609
:104B30004CF56DA97EA98FA998AD20E030E040E248
:104B400051E40E941F02DC01CB01BC01CD010E9497
:104B50004900DC01CB0198AB8FA70FC088EC90E037
:104B60009EA78DA78DA59EA50197F1F79EA78DA75E
:104B70008FA598A9019798AB8FA78FA598A90097A3
:104B800069F714C069A97AA98BA99CA90E94490058
:104B9000DC01CB0198AB8FA78FA598A99CA78BA709
:104BA0008BA59CA50197F1F79CA78BA78AAD8F5F7A
:104BB0008AAF8AAD863008F478CF82E061E00E9447
:104BC000621580E090E0AAEFB3E48FA398A7A9A7AD
:104BD000BAA76FA178A589A59AA520E030E04AEF91
:104BE00054E40E941F02DC01CB018BA39CA3ADA364
:104BF000BEA36BA17CA18DA19EA120E030E040E886
:104C00005FE30E94250488232CF481E090E09AA3BE
:104C100089A33FC06BA17CA18DA19EA120E03FEFA5
:104C20004FE757E40E94C50318164CF56FA178A50D
:104C300089A59AA520E030E040E251E40E941F02DD
:104C4000DC01CB01BC01CD010E944900DC01CB019C
:104C50009AA389A30FC088EC90E098A38F8F8F8DC3
:104C600098A10197F1F798A38F8F89A19AA1019735
:104C70009AA389A389A19AA1009769F714C06BA18F
:104C80007CA18DA19EA10E944900DC01CB019AA3C9
:104C900089A389A19AA19E8F8D8F8D8D9E8D01975D
:104CA000F1F79E8F8D8F83E060E00E94621583E0B4
:104CB00089AF84C089AD282F30E081E090E002C048
:104CC000880F991F2A95E2F7982F83E0692F0E9499
:104CD000621580E090E0AAEFB3E4898F9A8FAB8FE2
:104CE000BC8F698D7A8D8B8D9C8D20E030E04AEFF2
:104CF00054E40E941F02DC01CB018D8B9E8BAF8B95
:104D0000B88F6D897E898F89988D20E030E040E8EA
:104D10005FE30E94250488232CF481E090E09C8BC3
:104D20008B8B3FC06D897E898F89988D20E03FEF06
:104D30004FE757E40E94C50318164CF5698D7A8D2C
:104D40008B8D9C8D20E030E040E251E40E941F02F8
:104D5000DC01CB01BC01CD010E944900DC01CB018B
:104D60009C8B8B8B0FC088EC90E09A8B898B898908
:104D70009A890197F1F79A8B898B8B899C89019786
:104D80009C8B8B8B8B899C89009769F714C06D89EC
:104D90007E898F89988D0E944900DC01CB019C8B14
:104DA0008B8B8B899C89988B8F878F8598890197AE
:104DB000F1F7988B8F8789AD8F5F89AF89AD86308A
:104DC00008F478CF83E061E00E94621580E090E013
:104DD000AAEFB3E48B879C87AD87BE876B857C8504
:104DE0008D859E8520E030E04AEF54E40E941F024A
:104DF000DC01CB018F839887A987BA876F8178857B
:104E000089859A8520E030E040E85FE30E94250430
:104E100088232CF481E090E09E838D833FC06F81D6
:104E2000788589859A8520E03FEF4FE757E40E9417
:104E3000C50318164CF56B857C858D859E8520E015
:104E400030E040E251E40E941F02DC01CB01BC01D2
:104E5000CD010E944900DC01CB019E838D830FC0F0
:104E600088EC90E09C838B838B819C810197F1F788
:104E70009C838B838D819E8101979E838D838D8101
:104E80009E81009769F714C06F81788589859A851E
:104E90000E944900DC01CB019E838D838D819E8120
:104EA0009A83898389819A810197F1F79A8389830B
:104EB00083E060E00E946215ED960FB6F894DEBFC5
:104EC0000FBECDBFCF91DF910895DF93CF93CDB7C4
:104ED000DEB783E065E041E00E94B51281E00E9408
:104EE000C209CF91DF910895DF93CF93CDB7DEB79D
:104EF00081E040E050E060E470E40E94C20BCF919A
:104F0000DF910895DF93CF93CDB7DEB728970FB623
:104F1000F894DEBF0FBECDBF69837A838B839C83F9
:104F200089819A81AB81BC818D839E83AF83B88751
:104F30008D819E81AF81B8858A359105A105B10526
:104F4000A9F18D819E81AF81B8858B359105A10531
:104F5000B10550F48D819E81AF81B8858D32910568
:104F6000A105B10559F131C08D819E81AF81B88510
:104F700087389105A105B10589F08D819E81AF81AA
:104F8000B885843B9105A105B105F9F481E040E0C5
:104F900050E068E471E40E94C20B17C081E040E079
:104FA00050E062E271E40E94C20B0FC081E040E079
:104FB00050E068EF70E40E94C20B07C081E040E05F
:104FC00050E06CEA70E40E94C20B28960FB6F89489
:104FD000DEBF0FBECDBFCF91DF910895DF93CF939A
:104FE00000D00F92CDB7DEB789838981282F30E0BA
:104FF0003B832A838A819B8183309105D9F12A8161
:105000003B81243031057CF48A819B81813091057C
:1050100029F12A813B812230310534F58A819B8137
:105020000097B1F044C02A813B812530310571F1F0
:105030008A819B81853091051CF12A813B81263034
:10504000310551F18A819B818730910559F12FC03B
:1050500082E060E041E00E94B51229C082E061E098
:1050600041E00E94B51223C082E062E041E00E946C
:10507000B5121DC082E063E041E00E94B51217C086
:1050800082E064E041E00E94B51211C082E065E078
:1050900041E00E94B5120BC082E066E041E00E9450
:1050A000B51205C082E067E041E00E94B5120F90A2
:1050B0000F900F90CF91DF910895DF93CF9300D0A1
:1050C0000F92CDB7DEB789838981282F30E03B83EB
:1050D0002A838A819B8183309105D9F12A813B8182
:1050E000243031057CF48A819B818130910529F13E
:1050F0002A813B812230310534F58A819B810097DA
:10510000B1F044C02A813B812530310571F18A819B
:105110009B81853091051CF12A813B812630310528
:1051200051F18A819B818730910559F12FC082E02E
:1051300060E041E00E94701329C082E061E041E03C
:105140000E94701323C082E062E041E00E9470136D
:105150001DC082E063E041E00E94701317C082E04E
:1051600064E041E00E94701311C082E065E041E01C
:105170000E9470130BC082E066E041E00E94701351
:1051800005C082E067E041E00E9470130F900F902D
:105190000F90CF91DF910895DF93CF9300D00F92BE
:1051A000CDB7DEB789838981282F30E03B832A83FE
:1051B0008A819B8183309105D9F12A813B812430FA
:1051C00031057CF48A819B818130910529F12A8106
:1051D0003B812230310534F58A819B810097B1F003
:1051E00044C02A813B812530310571F18A819B8140
:1051F000853091051CF12A813B812630310551F122
:105200008A819B818730910559F12FC082E060E04F
:1052100040E00E94701329C082E061E040E00E94FB
:10522000701323C082E062E040E00E9470131DC052
:1052300082E063E040E00E94701317C082E064E007
:1052400040E00E94701311C082E065E040E00E94DF
:1052500070130BC082E066E040E00E94701305C04E
:1052600082E067E040E00E9470130F900F900F9073
:10527000CF91DF910895DF93CF93CDB7DEB70E9432
:105280002F16CF91DF910895DF93CF93CDB7DEB77F
:105290002E970FB6F894DEBF0FBECDBF80E00E9400
:1052A00059169E878D878D859E85CC01A0E0B0E044
:1052B000BC01CD010E940705DC01CB01BC01CD0181
:1052C00020E030E040EA50E40E941F02DC01CB0104
:1052D000BC01CD0120E030E040E854E40E94190315
:1052E000DC01CB0189879A87AB87BC8769857A8582
:1052F0008B859C8520E030E44CE955EC0E941F0230
:10530000DC01CB01BC01CD0120E030E543EC56E4EB
:105310000E94F201DC01CB01BC01CD0129853A8557
:105320004B855C850E941903DC01CB0189839A833C
:10533000AB83BC8369817A818B819C8120E030E0E2
:105340004AE754E40E941903DC01CB019C01AD0142
:1053500060E070E08AEF93E40E941903DC01CB0166
:105360008D839E83AF83B8878D819E81AF81B88501
:10537000BC01CD012E960FB6F894DEBF0FBECDBF97
:10538000CF91DF9108950F931F93DF93CF93CDB704
:10539000DEB7CC54D0400FB6F894DEBF0FBECDBF01
:1053A000FE01E75BFF4F80E090E0A8ECB2E4808371
:1053B0009183A283B3838E010B5B1F4FFE01E75BDA
:1053C000FF4F608171818281938120E030E04AEF5C
:1053D00054E40E941F02DC01CB01F8018083918319
:1053E000A283B383FE01EB5BFF4F608171818281F9
:1053F000938120E030E040E85FE30E9425048823A9
:1054000044F4FE01ED5BFF4F81E090E091838083E7
:1054100064C0FE01EB5BFF4F6081718182819381EB
:1054200020E03FEF4FE757E40E94C50318160CF049
:1054300043C0FE01E75BFF4F6081718182819381F0
:1054400020E030E040E251E40E941F02DC01CB0189
:105450008E010D5B1F4FBC01CD010E944900DC0194
:10546000CB01F801918380831FC0FE01EF5BFF4FEA
:1054700088EC90E091838083FE01EF5BFF4F808199
:1054800091810197F1F7FE01EF5BFF4F91838083DC
:10549000DE01AD5BBF4FFE01ED5BFF4F808191816F
:1054A000019711969C938E93FE01ED5BFF4F8081D7
:1054B00091810097D1F624C08E010D5B1F4FFE0134
:1054C000EB5BFF4F60817181828193810E94490073
:1054D000DC01CB01F80191838083FE01ED5BFF4F7E
:1054E00080819181FE01FF9691838083FE01FF966A
:1054F000808191810197F1F7FE01FF96918380836E
:1055000080E062E041E00E94B51280E061E041E0AD
:105510000E94B51280E060E041E00E94B51283E095
:105520006FEF0E94211588E30E94992C80E090E0A3
:10553000A8E4B2E48BAF9CAFADAFBEAF6BAD7CADBA
:105540008DAD9EAD2BEA3AEA4AE250E40E941F027A
:10555000DC01CB018FAB98AFA9AFBAAF6FA978AD23
:1055600089AD9AAD20E030E040E85FE30E94250479
:1055700088231CF481E08EAB91C06FA978AD89AD12
:105580009AAD20E030E04FE753E40E94C5031816BF
:105590000CF07BC06BAD7CAD8DAD9EAD20E030E0FE
:1055A0004AE754E40E941903DC01CB018AAB9BABB0
:1055B000ACABBDAB6AA97BA98CA99DA920E030E06A
:1055C0004AEF54E40E941F02DC01CB018EA79FA783
:1055D000A8ABB9AB6EA57FA588A999A920E030E05A
:1055E00040E85FE30E94250488232CF481E090E0EA
:1055F0009DA78CA73FC06EA57FA588A999A920E08B
:105600003FEF4FE757E40E94C50318164CF56AA90F
:105610007BA98CA99DA920E030E040E251E40E94E2
:105620001F02DC01CB01BC01CD010E944900DC015D
:10563000CB019DA78CA70FC088EC90E09BA78AA701
:105640008AA59BA50197F1F79BA78AA78CA59DA585
:1056500001979DA78CA78CA59DA5009769F724C0ED
:105660006EA57FA588A999A90E944900DC01CB01FC
:105670009DA78CA78CA59DA599A788A788A599A566
:105680000197F1F799A788A70FC06FA978AD89ADE9
:105690009AAD0E944900DC01CB018EAB8EA98FA38D
:1056A0008FA18A95F1F78FA38CE00E94992C80E05E
:1056B00090E0A8E4B2E48BA39CA3ADA3BEA36BA12E
:1056C0007CA18DA19EA12BEA3AEA4AE250E40E9415
:1056D0001F02DC01CB018F8F98A3A9A3BAA36F8D02
:1056E00078A189A19AA120E030E040E85FE30E9420
:1056F000250488231CF481E08E8F91C06F8D78A1E2
:1057000089A19AA120E030E04FE753E40E94C5034D
:1057100018160CF07BC06BA17CA18DA19EA120E08E
:1057200030E04AE754E40E941903DC01CB018A8F80
:105730009B8FAC8FBD8F6A8D7B8D8C8D9D8D20E076
:1057400030E04AEF54E40E941F02DC01CB018E8B53
:105750009F8BA88FB98F6E897F89888D998D20E066
:1057600030E040E85FE30E94250488232CF481E0C8
:1057700090E09D8B8C8B3FC06E897F89888D998D41
:1057800020E03FEF4FE757E40E94C50318164CF5A1
:105790006A8D7B8D8C8D9D8D20E030E040E251E460
:1057A0000E941F02DC01CB01BC01CD010E94490017
:1057B000DC01CB019D8B8C8B0FC088EC90E09B8B28
:1057C0008A8B8A899B890197F1F79B8B8A8B8C89BD
:1057D0009D8901979D8B8C8B8C899D89009769F79A
:1057E00024C06E897F89888D998D0E944900DC01D3
:1057F000CB019D8B8C8B8C899D89998B888B88891B
:1058000099890197F1F7998B888B0FC06F8D78A1DB
:1058100089A19AA10E944900DC01CB018E8F8E8D57
:105820008F878F858A95F1F78F8781E00E94992C69
:1058300080E090E0A0E0B0E48B879C87AD87BE87D6
:105840006B857C858D859E8520E030E04AEF54E4B1
:105850000E941F02DC01CB018F839887A987BA873A
:105860006F81788589859A8520E030E040E85FE3A4
:105870000E94250488232CF481E090E09E838D8390
:105880003FC06F81788589859A8520E03FEF4FE79B
:1058900057E40E94C50318164CF56B857C858D85F1
:1058A0009E8520E030E040E251E40E941F02DC01CE
:1058B000CB01BC01CD010E944900DC01CB019E83DC
:1058C0008D830FC088EC90E09C838B838B819C81BF
:1058D0000197F1F79C838B838D819E8101979E8335
:1058E0008D838D819E81009769F714C06F817885C3
:1058F00089859A850E944900DC01CB019E838D83B6
:105900008D819E819A83898389819A810197F1F79C
:105910009A83898386E00E94992CC45BDF4F0FB67F
:10592000F894DEBF0FBECDBFCF91DF911F910F91D5
:105930000895DF93CF930F92CDB7DEB7898380E0D0
:1059400062E041E00E94701380E061E040E00E946C
:10595000701380E060E040E00E94701383E0698192
:105960000E94621580E062E040E00E9470130F9098
:10597000CF91DF910895DF93CF93CDB7DEB7E69750
:105980000FB6F894DEBF0FBECDBF9EAB8DAB80E0EF
:1059900090E0A8E4B2E48DA79EA7AFA7B8AB6DA531
:1059A0007EA58FA598A92BEA3AEA4AE250E40E9424
:1059B0001F02DC01CB0189A79AA7ABA7BCA769A5E9
:1059C0007AA58BA59CA520E030E040E85FE30E942B
:1059D000250488231CF481E088A791C069A57AA5D5
:1059E0008BA59CA520E030E04FE753E40E94C5035F
:1059F00018160CF07BC06DA57EA58FA598A920E098
:105A000030E04AE754E40E941903DC01CB018CA387
:105A10009DA3AEA3BFA36CA17DA18EA19FA120E0F9
:105A200030E04AEF54E40E941F02DC01CB0188A35E
:105A300099A3AAA3BBA368A179A18AA19BA120E0F5
:105A400030E040E85FE30E94250488232CF481E0E5
:105A500090E09F8F8E8F3FC068A179A18AA19BA102
:105A600020E03FEF4FE757E40E94C50318164CF5BE
:105A70006CA17DA18EA19FA120E030E040E251E425
:105A80000E941F02DC01CB01BC01CD010E94490034
:105A9000DC01CB019F8F8E8F0FC088EC90E09D8F33
:105AA0008C8F8C8D9D8D0197F1F79D8F8C8F8E8DB6
:105AB0009F8D01979F8F8E8F8E8D9F8D009769F799
:105AC00024C068A179A18AA19BA10E944900DC01A0
:105AD000CB019F8F8E8F8E8D9F8D9B8F8A8F8A8D0E
